{
  "contractName": "Ownable",
  "abi": [
    {
      "inputs": [],
      "stateMutability": "nonpayable",
      "type": "constructor"
    },
    {
      "anonymous": false,
      "inputs": [
        {
          "indexed": true,
          "internalType": "address",
          "name": "account",
          "type": "address"
        }
      ],
      "name": "ConsumerAdded",
      "type": "event"
    },
    {
      "anonymous": false,
      "inputs": [
        {
          "indexed": true,
          "internalType": "address",
          "name": "account",
          "type": "address"
        }
      ],
      "name": "ConsumerRemoved",
      "type": "event"
    },
    {
      "anonymous": false,
      "inputs": [
        {
          "indexed": true,
          "internalType": "address",
          "name": "account",
          "type": "address"
        }
      ],
      "name": "DistributorAdded",
      "type": "event"
    },
    {
      "anonymous": false,
      "inputs": [
        {
          "indexed": true,
          "internalType": "address",
          "name": "account",
          "type": "address"
        }
      ],
      "name": "DistributorRemoved",
      "type": "event"
    },
    {
      "anonymous": false,
      "inputs": [
        {
          "indexed": true,
          "internalType": "address",
          "name": "account",
          "type": "address"
        }
      ],
      "name": "FarmerAdded",
      "type": "event"
    },
    {
      "anonymous": false,
      "inputs": [
        {
          "indexed": true,
          "internalType": "address",
          "name": "account",
          "type": "address"
        }
      ],
      "name": "FarmerRemoved",
      "type": "event"
    },
    {
      "anonymous": false,
      "inputs": [
        {
          "indexed": false,
          "internalType": "uint256",
          "name": "upc",
          "type": "uint256"
        }
      ],
      "name": "ForSale",
      "type": "event"
    },
    {
      "anonymous": false,
      "inputs": [
        {
          "indexed": false,
          "internalType": "uint256",
          "name": "upc",
          "type": "uint256"
        }
      ],
      "name": "Harvested",
      "type": "event"
    },
    {
      "anonymous": false,
      "inputs": [
        {
          "indexed": false,
          "internalType": "uint256",
          "name": "upc",
          "type": "uint256"
        }
      ],
      "name": "Packed",
      "type": "event"
    },
    {
      "anonymous": false,
      "inputs": [
        {
          "indexed": false,
          "internalType": "uint256",
          "name": "upc",
          "type": "uint256"
        }
      ],
      "name": "Processed",
      "type": "event"
    },
    {
      "anonymous": false,
      "inputs": [
        {
          "indexed": false,
          "internalType": "uint256",
          "name": "upc",
          "type": "uint256"
        }
      ],
      "name": "Purchased",
      "type": "event"
    },
    {
      "anonymous": false,
      "inputs": [
        {
          "indexed": false,
          "internalType": "uint256",
          "name": "upc",
          "type": "uint256"
        }
      ],
      "name": "Received",
      "type": "event"
    },
    {
      "anonymous": false,
      "inputs": [
        {
          "indexed": true,
          "internalType": "address",
          "name": "account",
          "type": "address"
        }
      ],
      "name": "RetailerAdded",
      "type": "event"
    },
    {
      "anonymous": false,
      "inputs": [
        {
          "indexed": true,
          "internalType": "address",
          "name": "account",
          "type": "address"
        }
      ],
      "name": "RetailerRemoved",
      "type": "event"
    },
    {
      "anonymous": false,
      "inputs": [
        {
          "indexed": false,
          "internalType": "uint256",
          "name": "upc",
          "type": "uint256"
        }
      ],
      "name": "Shipped",
      "type": "event"
    },
    {
      "anonymous": false,
      "inputs": [
        {
          "indexed": false,
          "internalType": "uint256",
          "name": "upc",
          "type": "uint256"
        }
      ],
      "name": "Sold",
      "type": "event"
    },
    {
      "anonymous": false,
      "inputs": [
        {
          "indexed": true,
          "internalType": "address",
          "name": "oldOwner",
          "type": "address"
        },
        {
          "indexed": true,
          "internalType": "address",
          "name": "newOwner",
          "type": "address"
        }
      ],
      "name": "TransferOwnership",
      "type": "event"
    },
    {
      "inputs": [
        {
          "internalType": "address",
          "name": "account",
          "type": "address"
        }
      ],
      "name": "addConsumer",
      "outputs": [],
      "stateMutability": "nonpayable",
      "type": "function"
    },
    {
      "inputs": [
        {
          "internalType": "address",
          "name": "account",
          "type": "address"
        }
      ],
      "name": "addDistributor",
      "outputs": [],
      "stateMutability": "nonpayable",
      "type": "function"
    },
    {
      "inputs": [
        {
          "internalType": "address",
          "name": "account",
          "type": "address"
        }
      ],
      "name": "addFarmer",
      "outputs": [],
      "stateMutability": "nonpayable",
      "type": "function"
    },
    {
      "inputs": [
        {
          "internalType": "address",
          "name": "account",
          "type": "address"
        }
      ],
      "name": "addRetailer",
      "outputs": [],
      "stateMutability": "nonpayable",
      "type": "function"
    },
    {
      "inputs": [
        {
          "internalType": "uint256",
          "name": "_upc",
          "type": "uint256"
        }
      ],
      "name": "buyItem",
      "outputs": [],
      "stateMutability": "payable",
      "type": "function"
    },
    {
      "inputs": [
        {
          "internalType": "uint256",
          "name": "_upc",
          "type": "uint256"
        }
      ],
      "name": "fetchItemBufferOne",
      "outputs": [
        {
          "internalType": "uint256",
          "name": "itemSKU",
          "type": "uint256"
        },
        {
          "internalType": "uint256",
          "name": "itemUPC",
          "type": "uint256"
        },
        {
          "internalType": "address",
          "name": "ownerID",
          "type": "address"
        },
        {
          "internalType": "address",
          "name": "originFarmerID",
          "type": "address"
        },
        {
          "internalType": "string",
          "name": "originFarmName",
          "type": "string"
        },
        {
          "internalType": "string",
          "name": "originFarmInformation",
          "type": "string"
        },
        {
          "internalType": "string",
          "name": "originFarmLatitude",
          "type": "string"
        },
        {
          "internalType": "string",
          "name": "originFarmLongitude",
          "type": "string"
        }
      ],
      "stateMutability": "view",
      "type": "function"
    },
    {
      "inputs": [
        {
          "internalType": "uint256",
          "name": "_upc",
          "type": "uint256"
        }
      ],
      "name": "fetchItemBufferTwo",
      "outputs": [
        {
          "internalType": "uint256",
          "name": "itemSKU",
          "type": "uint256"
        },
        {
          "internalType": "uint256",
          "name": "itemUPC",
          "type": "uint256"
        },
        {
          "internalType": "uint256",
          "name": "productID",
          "type": "uint256"
        },
        {
          "internalType": "string",
          "name": "productNotes",
          "type": "string"
        },
        {
          "internalType": "uint256",
          "name": "productPrice",
          "type": "uint256"
        },
        {
          "internalType": "uint256",
          "name": "itemState",
          "type": "uint256"
        },
        {
          "internalType": "address",
          "name": "distributorID",
          "type": "address"
        },
        {
          "internalType": "address",
          "name": "retailerID",
          "type": "address"
        },
        {
          "internalType": "address",
          "name": "consumerID",
          "type": "address"
        }
      ],
      "stateMutability": "view",
      "type": "function"
    },
    {
      "inputs": [
        {
          "internalType": "uint256",
          "name": "_upc",
          "type": "uint256"
        },
        {
          "internalType": "address",
          "name": "_originFarmerID",
          "type": "address"
        },
        {
          "internalType": "string",
          "name": "_originFarmName",
          "type": "string"
        },
        {
          "internalType": "string",
          "name": "_originFarmInformation",
          "type": "string"
        },
        {
          "internalType": "string",
          "name": "_originFarmLatitude",
          "type": "string"
        },
        {
          "internalType": "string",
          "name": "_originFarmLongitude",
          "type": "string"
        },
        {
          "internalType": "string",
          "name": "_productNotes",
          "type": "string"
        }
      ],
      "name": "harvestItem",
      "outputs": [],
      "stateMutability": "nonpayable",
      "type": "function"
    },
    {
      "inputs": [
        {
          "internalType": "address",
          "name": "account",
          "type": "address"
        }
      ],
      "name": "isConsumer",
      "outputs": [
        {
          "internalType": "bool",
          "name": "",
          "type": "bool"
        }
      ],
      "stateMutability": "view",
      "type": "function"
    },
    {
      "inputs": [
        {
          "internalType": "address",
          "name": "account",
          "type": "address"
        }
      ],
      "name": "isDistributor",
      "outputs": [
        {
          "internalType": "bool",
          "name": "",
          "type": "bool"
        }
      ],
      "stateMutability": "view",
      "type": "function"
    },
    {
      "inputs": [
        {
          "internalType": "address",
          "name": "account",
          "type": "address"
        }
      ],
      "name": "isFarmer",
      "outputs": [
        {
          "internalType": "bool",
          "name": "",
          "type": "bool"
        }
      ],
      "stateMutability": "view",
      "type": "function"
    },
    {
      "inputs": [
        {
          "internalType": "address",
          "name": "account",
          "type": "address"
        }
      ],
      "name": "isRetailer",
      "outputs": [
        {
          "internalType": "bool",
          "name": "",
          "type": "bool"
        }
      ],
      "stateMutability": "view",
      "type": "function"
    },
    {
      "inputs": [],
      "name": "kill",
      "outputs": [],
      "stateMutability": "nonpayable",
      "type": "function"
    },
    {
      "inputs": [
        {
          "internalType": "uint256",
          "name": "_upc",
          "type": "uint256"
        }
      ],
      "name": "packItem",
      "outputs": [],
      "stateMutability": "nonpayable",
      "type": "function"
    },
    {
      "inputs": [
        {
          "internalType": "uint256",
          "name": "_upc",
          "type": "uint256"
        }
      ],
      "name": "processItem",
      "outputs": [],
      "stateMutability": "nonpayable",
      "type": "function"
    },
    {
      "inputs": [
        {
          "internalType": "uint256",
          "name": "_upc",
          "type": "uint256"
        }
      ],
      "name": "purchaseItem",
      "outputs": [],
      "stateMutability": "nonpayable",
      "type": "function"
    },
    {
      "inputs": [
        {
          "internalType": "uint256",
          "name": "_upc",
          "type": "uint256"
        }
      ],
      "name": "receiveItem",
      "outputs": [],
      "stateMutability": "nonpayable",
      "type": "function"
    },
    {
      "inputs": [],
      "name": "renounceConsumer",
      "outputs": [],
      "stateMutability": "nonpayable",
      "type": "function"
    },
    {
      "inputs": [],
      "name": "renounceDistributor",
      "outputs": [],
      "stateMutability": "nonpayable",
      "type": "function"
    },
    {
      "inputs": [],
      "name": "renounceFarmer",
      "outputs": [],
      "stateMutability": "nonpayable",
      "type": "function"
    },
    {
      "inputs": [],
      "name": "renounceRetailer",
      "outputs": [],
      "stateMutability": "nonpayable",
      "type": "function"
    },
    {
      "inputs": [
        {
          "internalType": "uint256",
          "name": "_upc",
          "type": "uint256"
        },
        {
          "internalType": "uint256",
          "name": "_price",
          "type": "uint256"
        }
      ],
      "name": "sellItem",
      "outputs": [],
      "stateMutability": "nonpayable",
      "type": "function"
    },
    {
      "inputs": [
        {
          "internalType": "uint256",
          "name": "_upc",
          "type": "uint256"
        }
      ],
      "name": "shipItem",
      "outputs": [],
      "stateMutability": "nonpayable",
      "type": "function"
    },
    {
      "inputs": [],
      "name": "getOwner",
      "outputs": [
        {
          "internalType": "address",
          "name": "",
          "type": "address"
        }
      ],
      "stateMutability": "view",
      "type": "function"
    },
    {
      "inputs": [],
      "name": "isOwner",
      "outputs": [
        {
          "internalType": "bool",
          "name": "",
          "type": "bool"
        }
      ],
      "stateMutability": "view",
      "type": "function"
    },
    {
      "inputs": [],
      "name": "renounceOwnership",
      "outputs": [],
      "stateMutability": "nonpayable",
      "type": "function"
    },
    {
      "inputs": [
        {
          "internalType": "address",
          "name": "newOwner",
          "type": "address"
        }
      ],
      "name": "transferOwnership",
      "outputs": [],
      "stateMutability": "nonpayable",
      "type": "function"
    }
  ],
  "bytecode": "0x60806040523480156200001157600080fd5b5062000023336200016b60201b60201c565b6200003433620001cc60201b60201c565b62000045336200022d60201b60201c565b62000056336200028e60201b60201c565b33600460006101000a81548173ffffffffffffffffffffffffffffffffffffffff021916908373ffffffffffffffffffffffffffffffffffffffff1602179055506001600681905550600160058190555033600960006101000a81548173ffffffffffffffffffffffffffffffffffffffff021916908373ffffffffffffffffffffffffffffffffffffffff160217905550600960009054906101000a900473ffffffffffffffffffffffffffffffffffffffff1673ffffffffffffffffffffffffffffffffffffffff16600073ffffffffffffffffffffffffffffffffffffffff167f5c486528ec3e3f0ea91181cff8116f02bfa350e03b8b6f12e00765adbb5af85c60405160405180910390a362000438565b62000186816000620002ef60201b62001bb41790919060201c565b8073ffffffffffffffffffffffffffffffffffffffff167f2e0ded4123377a3c2bc9a26f1717655a129e2f20752924d42e730ec89c83dbd060405160405180910390a250565b620001e7816001620002ef60201b62001bb41790919060201c565b8073ffffffffffffffffffffffffffffffffffffffff167fddbf200aa634dc3fb81cfd68583dd1040d1c751d335e1d86b631bde3e977fea860405160405180910390a250565b62000248816002620002ef60201b62001bb41790919060201c565b8073ffffffffffffffffffffffffffffffffffffffff167f71ae26cad02663e3d92efd6ec56031a80d74a20c0ab4183faa8bf262261c9baa60405160405180910390a250565b620002a9816003620002ef60201b62001bb41790919060201c565b8073ffffffffffffffffffffffffffffffffffffffff167f28b26e7a3d20aedbc5f8f2ebf7da671c0491723a2b78f47a097b0e46dee0714260405160405180910390a250565b600073ffffffffffffffffffffffffffffffffffffffff168173ffffffffffffffffffffffffffffffffffffffff1614156200032a57600080fd5b6200033c8282620003a560201b60201c565b156200034757600080fd5b60018260000160008373ffffffffffffffffffffffffffffffffffffffff1673ffffffffffffffffffffffffffffffffffffffff16815260200190815260200160002060006101000a81548160ff0219169083151502179055505050565b60008073ffffffffffffffffffffffffffffffffffffffff168273ffffffffffffffffffffffffffffffffffffffff161415620003e157600080fd5b8260000160008373ffffffffffffffffffffffffffffffffffffffff1673ffffffffffffffffffffffffffffffffffffffff16815260200190815260200160002060009054906101000a900460ff16905092915050565b61297f80620004486000396000f3fe60806040526004361061019c5760003560e01c8063834ff739116100ec578063bdd8a6a81161008a578063e7fb74c711610064578063e7fb74c71461056f578063f2fde38b1461058b578063f30fc480146105b4578063f61c899a146105dd5761019c565b8063bdd8a6a814610506578063d38ea5bf1461052f578063db0e6a2f146105585761019c565b80638f0c86fa116100c65780638f0c86fa146104385780638f32d59b14610475578063a26be999146104a0578063b9429069146104c95761019c565b8063834ff739146103a7578063893d20e8146103e45780638ec4f5051461040f5761019c565b8063644241db116101595780637250e224116101335780637250e224146102fa57806377c459131461032357806380c3f96d1461036757806380fc0ce4146103905761019c565b8063644241db1461028757806366225ff91461029e578063715018a6146102e35761019c565b8063112940f9146101a15780632d923561146101ca57806341c0e1b5146101f357806349dae7661461020a5780635da09b881461023357806361e6982d14610270575b600080fd5b3480156101ad57600080fd5b506101c860048036038101906101c3919061227c565b610606565b005b3480156101d657600080fd5b506101f160048036038101906101ec91906122df565b610624565b005b3480156101ff57600080fd5b50610208610721565b005b34801561021657600080fd5b50610231600480360381019061022c919061231f565b6107b4565b005b34801561023f57600080fd5b5061025a6004803603810190610255919061227c565b610895565b6040516102679190612367565b60405180910390f35b34801561027c57600080fd5b506102856108b2565b005b34801561029357600080fd5b5061029c6108bd565b005b3480156102aa57600080fd5b506102c560048036038101906102c0919061231f565b6108c8565b6040516102da99989796959493929190612439565b60405180910390f35b3480156102ef57600080fd5b506102f8610acc565b005b34801561030657600080fd5b50610321600480360381019061031c919061227c565b610b9e565b005b34801561032f57600080fd5b5061034a6004803603810190610345919061231f565b610bb3565b60405161035e9897969594939291906124cd565b60405180910390f35b34801561037357600080fd5b5061038e6004803603810190610389919061227c565b610ef2565b005b34801561039c57600080fd5b506103a5610f10565b005b3480156103b357600080fd5b506103ce60048036038101906103c9919061227c565b610f1b565b6040516103db9190612367565b60405180910390f35b3480156103f057600080fd5b506103f9610f38565b6040516104069190612567565b60405180910390f35b34801561041b57600080fd5b506104366004803603810190610431919061227c565b610f62565b005b34801561044457600080fd5b5061045f600480360381019061045a919061227c565b610f80565b60405161046c9190612367565b60405180910390f35b34801561048157600080fd5b5061048a610f99565b6040516104979190612367565b60405180910390f35b3480156104ac57600080fd5b506104c760048036038101906104c2919061231f565b610ff1565b005b3480156104d557600080fd5b506104f060048036038101906104eb919061227c565b61117c565b6040516104fd9190612367565b60405180910390f35b34801561051257600080fd5b5061052d600480360381019061052891906126b7565b611199565b005b34801561053b57600080fd5b506105566004803603810190610551919061231f565b611561565b005b34801561056457600080fd5b5061056d6116eb565b005b6105896004803603810190610584919061231f565b6116f6565b005b34801561059757600080fd5b506105b260048036038101906105ad919061227c565b6119dc565b005b3480156105c057600080fd5b506105db60048036038101906105d6919061231f565b6119f9565b005b3480156105e957600080fd5b5061060460048036038101906105ff919061231f565b611ada565b005b61060f33610f1b565b61061857600080fd5b61062181611c60565b50565b8160026007811115610639576106386127e5565b5b60076000838152602001908152602001600020600b0160009054906101000a900460ff16600781111561066f5761066e6127e5565b5b1461067957600080fd5b6106823361117c565b61068b57600080fd5b600360076000858152602001908152602001600020600b0160006101000a81548160ff021916908360078111156106c5576106c46127e5565b5b02179055508160076000858152602001908152602001600020600a01819055507fa96ae0fc3224ebd79eebfe54bd130cc9cb94416cddd1f2386115e00b72532468836040516107149190612814565b60405180910390a1505050565b600460009054906101000a900473ffffffffffffffffffffffffffffffffffffffff1673ffffffffffffffffffffffffffffffffffffffff163373ffffffffffffffffffffffffffffffffffffffff1614156107b257600460009054906101000a900473ffffffffffffffffffffffffffffffffffffffff1673ffffffffffffffffffffffffffffffffffffffff16ff5b565b80600060078111156107c9576107c86127e5565b5b60076000838152602001908152602001600020600b0160009054906101000a900460ff1660078111156107ff576107fe6127e5565b5b1461080957600080fd5b6108123361117c565b61081b57600080fd5b600160076000848152602001908152602001600020600b0160006101000a81548160ff02191690836007811115610855576108546127e5565b5b02179055507f5afe3b1bf87069693c075da5c22a98d63d1aef98a30dbbe538d0781a98b77ee5826040516108899190612814565b60405180910390a15050565b60006108ab826002611cba90919063ffffffff16565b9050919050565b6108bb33611d4c565b565b6108c633611da6565b565b600080600060606000806000806000600760008b8152602001908152602001600020600001549850600760008b8152602001908152602001600020600101549750600760008b8152602001908152602001600020600801549650600760008b815260200190815260200160002060090180546109439061285e565b80601f016020809104026020016040519081016040528092919081815260200182805461096f9061285e565b80156109bc5780601f10610991576101008083540402835291602001916109bc565b820191906000526020600020905b81548152906001019060200180831161099f57829003601f168201915b50505050509550600760008b8152602001908152602001600020600a01549450600760008b8152602001908152602001600020600b0160009054906101000a900460ff166007811115610a1257610a116127e5565b5b9350600760008b8152602001908152602001600020600b0160019054906101000a900473ffffffffffffffffffffffffffffffffffffffff169250600760008b8152602001908152602001600020600c0160009054906101000a900473ffffffffffffffffffffffffffffffffffffffff169150600760008b8152602001908152602001600020600d0160009054906101000a900473ffffffffffffffffffffffffffffffffffffffff1690509193959799909294969850565b610ad4610f99565b610add57600080fd5b600073ffffffffffffffffffffffffffffffffffffffff16600960009054906101000a900473ffffffffffffffffffffffffffffffffffffffff1673ffffffffffffffffffffffffffffffffffffffff167f5c486528ec3e3f0ea91181cff8116f02bfa350e03b8b6f12e00765adbb5af85c60405160405180910390a36000600960006101000a81548173ffffffffffffffffffffffffffffffffffffffff021916908373ffffffffffffffffffffffffffffffffffffffff160217905550565b610ba733611e00565b610bb081611e00565b50565b600080600080606080606080600760008a8152602001908152602001600020600001549750600760008a8152602001908152602001600020600101549650600760008a815260200190815260200160002060020160009054906101000a900473ffffffffffffffffffffffffffffffffffffffff169550600760008a815260200190815260200160002060030160009054906101000a900473ffffffffffffffffffffffffffffffffffffffff169450600760008a81526020019081526020016000206004018054610c849061285e565b80601f0160208091040260200160405190810160405280929190818152602001828054610cb09061285e565b8015610cfd5780601f10610cd257610100808354040283529160200191610cfd565b820191906000526020600020905b815481529060010190602001808311610ce057829003601f168201915b50505050509350600760008a81526020019081526020016000206005018054610d259061285e565b80601f0160208091040260200160405190810160405280929190818152602001828054610d519061285e565b8015610d9e5780601f10610d7357610100808354040283529160200191610d9e565b820191906000526020600020905b815481529060010190602001808311610d8157829003601f168201915b50505050509250600760008a81526020019081526020016000206006018054610dc69061285e565b80601f0160208091040260200160405190810160405280929190818152602001828054610df29061285e565b8015610e3f5780601f10610e1457610100808354040283529160200191610e3f565b820191906000526020600020905b815481529060010190602001808311610e2257829003601f168201915b50505050509150600760008a81526020019081526020016000206007018054610e679061285e565b80601f0160208091040260200160405190810160405280929190818152602001828054610e939061285e565b8015610ee05780601f10610eb557610100808354040283529160200191610ee0565b820191906000526020600020905b815481529060010190602001808311610ec357829003601f168201915b50505050509050919395975091939597565b610efb3361117c565b610f0457600080fd5b610f0d81611e5a565b50565b610f1933611eb4565b565b6000610f31826003611cba90919063ffffffff16565b9050919050565b6000600960009054906101000a900473ffffffffffffffffffffffffffffffffffffffff16905090565b610f6b33610895565b610f7457600080fd5b610f7d81611f0e565b50565b6000610f8b33610f80565b610f9457600080fd5b919050565b6000600960009054906101000a900473ffffffffffffffffffffffffffffffffffffffff1673ffffffffffffffffffffffffffffffffffffffff163373ffffffffffffffffffffffffffffffffffffffff1614905090565b8060056007811115611006576110056127e5565b5b60076000838152602001908152602001600020600b0160009054906101000a900460ff16600781111561103c5761103b6127e5565b5b1461104657600080fd5b61104f33610895565b61105857600080fd5b336007600084815260200190815260200160002060020160006101000a81548173ffffffffffffffffffffffffffffffffffffffff021916908373ffffffffffffffffffffffffffffffffffffffff1602179055503360076000848152602001908152602001600020600c0160006101000a81548173ffffffffffffffffffffffffffffffffffffffff021916908373ffffffffffffffffffffffffffffffffffffffff160217905550600660076000848152602001908152602001600020600b0160006101000a81548160ff0219169083600781111561113c5761113b6127e5565b5b02179055507fa8142743f8f70a4c26f3691cf4ed59718381fb2f18070ec52be1f1022d855557826040516111709190612814565b60405180910390a15050565b6000611192826000611cba90919063ffffffff16565b9050919050565b6111a23361117c565b6111ab57600080fd5b604051806101e0016040528060065481526020018881526020018773ffffffffffffffffffffffffffffffffffffffff1681526020018773ffffffffffffffffffffffffffffffffffffffff1681526020018681526020018581526020018481526020018381526020016006548961122391906128bf565b81526020018281526020016000815260200160006007811115611249576112486127e5565b5b8152602001600073ffffffffffffffffffffffffffffffffffffffff168152602001600073ffffffffffffffffffffffffffffffffffffffff168152602001600073ffffffffffffffffffffffffffffffffffffffff1681525060076000898152602001908152602001600020600082015181600001556020820151816001015560408201518160020160006101000a81548173ffffffffffffffffffffffffffffffffffffffff021916908373ffffffffffffffffffffffffffffffffffffffff16021790555060608201518160030160006101000a81548173ffffffffffffffffffffffffffffffffffffffff021916908373ffffffffffffffffffffffffffffffffffffffff1602179055506080820151816004019080519060200190611374929190612167565b5060a0820151816005019080519060200190611391929190612167565b5060c08201518160060190805190602001906113ae929190612167565b5060e08201518160070190805190602001906113cb929190612167565b5061010082015181600801556101208201518160090190805190602001906113f4929190612167565b5061014082015181600a015561016082015181600b0160006101000a81548160ff0219169083600781111561142c5761142b6127e5565b5b021790555061018082015181600b0160016101000a81548173ffffffffffffffffffffffffffffffffffffffff021916908373ffffffffffffffffffffffffffffffffffffffff1602179055506101a082015181600c0160006101000a81548173ffffffffffffffffffffffffffffffffffffffff021916908373ffffffffffffffffffffffffffffffffffffffff1602179055506101c082015181600d0160006101000a81548173ffffffffffffffffffffffffffffffffffffffff021916908373ffffffffffffffffffffffffffffffffffffffff160217905550905050600160065461151b91906128bf565b6006819055507f8e55ccfc9778ff8eba1646d765cf1982537ce0f9257054a17b48aad745250183876040516115509190612814565b60405180910390a150505050505050565b8060066007811115611576576115756127e5565b5b60076000838152602001908152602001600020600b0160009054906101000a900460ff1660078111156115ac576115ab6127e5565b5b146115b657600080fd5b6115bf33610f1b565b6115c857600080fd5b336007600084815260200190815260200160002060020160006101000a81548173ffffffffffffffffffffffffffffffffffffffff021916908373ffffffffffffffffffffffffffffffffffffffff1602179055503360076000848152602001908152602001600020600d0160006101000a81548173ffffffffffffffffffffffffffffffffffffffff021916908373ffffffffffffffffffffffffffffffffffffffff1602179055506007806000848152602001908152602001600020600b0160006101000a81548160ff021916908360078111156116ab576116aa6127e5565b5b02179055507f653d56639fee6b566a5c804764e9689de38645f0b733df89a36a1b7b42173dd8826040516116df9190612814565b60405180910390a15050565b6116f433611f68565b565b806003600781111561170b5761170a6127e5565b5b60076000838152602001908152602001600020600b0160009054906101000a900460ff166007811115611741576117406127e5565b5b1461174b57600080fd5b60076000838152602001908152602001600020600a01548034101561176f57600080fd5b8261177933611e00565b336007600086815260200190815260200160002060020160006101000a81548173ffffffffffffffffffffffffffffffffffffffff021916908373ffffffffffffffffffffffffffffffffffffffff1602179055503360076000868152602001908152602001600020600b0160016101000a81548173ffffffffffffffffffffffffffffffffffffffff021916908373ffffffffffffffffffffffffffffffffffffffff160217905550600460076000868152602001908152602001600020600b0160006101000a81548160ff0219169083600781111561185d5761185c6127e5565b5b02179055506007600085815260200190815260200160002060030160009054906101000a900473ffffffffffffffffffffffffffffffffffffffff1673ffffffffffffffffffffffffffffffffffffffff166108fc60076000878152602001908152602001600020600a01549081150290604051600060405180830381858888f193505050501580156118f4573d6000803e3d6000fd5b507f92f64ca637d023f354075a4be751b169c1a8a9ccb6d33cdd0cb3520543995727846040516119249190612814565b60405180910390a1600060076000838152602001908152602001600020600a01549050600081346119559190612915565b905060076000848152602001908152602001600020600d0160009054906101000a900473ffffffffffffffffffffffffffffffffffffffff1673ffffffffffffffffffffffffffffffffffffffff166108fc829081150290604051600060405180830381858888f193505050501580156119d3573d6000803e3d6000fd5b50505050505050565b6119e4610f99565b6119ed57600080fd5b6119f681611fc2565b50565b8060016007811115611a0e57611a0d6127e5565b5b60076000838152602001908152602001600020600b0160009054906101000a900460ff166007811115611a4457611a436127e5565b5b14611a4e57600080fd5b611a573361117c565b611a6057600080fd5b600160076000848152602001908152602001600020600b0160006101000a81548160ff02191690836007811115611a9a57611a996127e5565b5b02179055507f9b3b66e2380b690bae22c73ef1428fb0c91e72fe14a4b6defa13035214187aff82604051611ace9190612814565b60405180910390a15050565b8060046007811115611aef57611aee6127e5565b5b60076000838152602001908152602001600020600b0160009054906101000a900460ff166007811115611b2557611b246127e5565b5b14611b2f57600080fd5b611b3833611e00565b600560076000848152602001908152602001600020600b0160006101000a81548160ff02191690836007811115611b7257611b716127e5565b5b02179055507ff00b9a5725b80c54016f42114f6ed7792d22eecb116011c4afac29c57bef6c95600554604051611ba89190612814565b60405180910390a15050565b600073ffffffffffffffffffffffffffffffffffffffff168173ffffffffffffffffffffffffffffffffffffffff161415611bee57600080fd5b611bf88282611cba565b15611c0257600080fd5b60018260000160008373ffffffffffffffffffffffffffffffffffffffff1673ffffffffffffffffffffffffffffffffffffffff16815260200190815260200160002060006101000a81548160ff0219169083151502179055505050565b611c74816003611bb490919063ffffffff16565b8073ffffffffffffffffffffffffffffffffffffffff167f28b26e7a3d20aedbc5f8f2ebf7da671c0491723a2b78f47a097b0e46dee0714260405160405180910390a250565b60008073ffffffffffffffffffffffffffffffffffffffff168273ffffffffffffffffffffffffffffffffffffffff161415611cf557600080fd5b8260000160008373ffffffffffffffffffffffffffffffffffffffff1673ffffffffffffffffffffffffffffffffffffffff16815260200190815260200160002060009054906101000a900460ff16905092915050565b611d608160036120bc90919063ffffffff16565b8073ffffffffffffffffffffffffffffffffffffffff167fe3f5ed5f263f1f01764a96edfc7d025f511ec5f7d180e8816908b78bcf74f09860405160405180910390a250565b611dba8160016120bc90919063ffffffff16565b8073ffffffffffffffffffffffffffffffffffffffff167f126174f6cf49c81cdb4a9214c6b8f037bef55b4ec31e4fc776cea2a1c8a88d5960405160405180910390a250565b611e14816001611bb490919063ffffffff16565b8073ffffffffffffffffffffffffffffffffffffffff167fddbf200aa634dc3fb81cfd68583dd1040d1c751d335e1d86b631bde3e977fea860405160405180910390a250565b611e6e816000611bb490919063ffffffff16565b8073ffffffffffffffffffffffffffffffffffffffff167f2e0ded4123377a3c2bc9a26f1717655a129e2f20752924d42e730ec89c83dbd060405160405180910390a250565b611ec88160006120bc90919063ffffffff16565b8073ffffffffffffffffffffffffffffffffffffffff167fa5e0f060af304ab17dd418c7927e3da3ae7868189bf387aee09ab179ccc572f260405160405180910390a250565b611f22816002611bb490919063ffffffff16565b8073ffffffffffffffffffffffffffffffffffffffff167f71ae26cad02663e3d92efd6ec56031a80d74a20c0ab4183faa8bf262261c9baa60405160405180910390a250565b611f7c8160026120bc90919063ffffffff16565b8073ffffffffffffffffffffffffffffffffffffffff167fdb7176e79cffef81cb01767dd0447a0b24bb72ca9778d4b245581086b2a7e6db60405160405180910390a250565b600073ffffffffffffffffffffffffffffffffffffffff168173ffffffffffffffffffffffffffffffffffffffff161415611ffc57600080fd5b8073ffffffffffffffffffffffffffffffffffffffff16600960009054906101000a900473ffffffffffffffffffffffffffffffffffffffff1673ffffffffffffffffffffffffffffffffffffffff167f5c486528ec3e3f0ea91181cff8116f02bfa350e03b8b6f12e00765adbb5af85c60405160405180910390a380600960006101000a81548173ffffffffffffffffffffffffffffffffffffffff021916908373ffffffffffffffffffffffffffffffffffffffff16021790555050565b600073ffffffffffffffffffffffffffffffffffffffff168173ffffffffffffffffffffffffffffffffffffffff1614156120f657600080fd5b6121008282611cba565b61210957600080fd5b60008260000160008373ffffffffffffffffffffffffffffffffffffffff1673ffffffffffffffffffffffffffffffffffffffff16815260200190815260200160002060006101000a81548160ff0219169083151502179055505050565b8280546121739061285e565b90600052602060002090601f01602090048101928261219557600085556121dc565b82601f106121ae57805160ff19168380011785556121dc565b828001600101855582156121dc579182015b828111156121db5782518255916020019190600101906121c0565b5b5090506121e991906121ed565b5090565b5b808211156122065760008160009055506001016121ee565b5090565b6000604051905090565b600080fd5b600080fd5b600073ffffffffffffffffffffffffffffffffffffffff82169050919050565b60006122498261221e565b9050919050565b6122598161223e565b811461226457600080fd5b50565b60008135905061227681612250565b92915050565b60006020828403121561229257612291612214565b5b60006122a084828501612267565b91505092915050565b6000819050919050565b6122bc816122a9565b81146122c757600080fd5b50565b6000813590506122d9816122b3565b92915050565b600080604083850312156122f6576122f5612214565b5b6000612304858286016122ca565b9250506020612315858286016122ca565b9150509250929050565b60006020828403121561233557612334612214565b5b6000612343848285016122ca565b91505092915050565b60008115159050919050565b6123618161234c565b82525050565b600060208201905061237c6000830184612358565b92915050565b61238b816122a9565b82525050565b600081519050919050565b600082825260208201905092915050565b60005b838110156123cb5780820151818401526020810190506123b0565b838111156123da576000848401525b50505050565b6000601f19601f8301169050919050565b60006123fc82612391565b612406818561239c565b93506124168185602086016123ad565b61241f816123e0565b840191505092915050565b6124338161223e565b82525050565b60006101208201905061244f600083018c612382565b61245c602083018b612382565b612469604083018a612382565b818103606083015261247b81896123f1565b905061248a6080830188612382565b61249760a0830187612382565b6124a460c083018661242a565b6124b160e083018561242a565b6124bf61010083018461242a565b9a9950505050505050505050565b6000610100820190506124e3600083018b612382565b6124f0602083018a612382565b6124fd604083018961242a565b61250a606083018861242a565b818103608083015261251c81876123f1565b905081810360a083015261253081866123f1565b905081810360c083015261254481856123f1565b905081810360e083015261255881846123f1565b90509998505050505050505050565b600060208201905061257c600083018461242a565b92915050565b600080fd5b600080fd5b7f4e487b7100000000000000000000000000000000000000000000000000000000600052604160045260246000fd5b6125c4826123e0565b810181811067ffffffffffffffff821117156125e3576125e261258c565b5b80604052505050565b60006125f661220a565b905061260282826125bb565b919050565b600067ffffffffffffffff8211156126225761262161258c565b5b61262b826123e0565b9050602081019050919050565b82818337600083830152505050565b600061265a61265584612607565b6125ec565b90508281526020810184848401111561267657612675612587565b5b612681848285612638565b509392505050565b600082601f83011261269e5761269d612582565b5b81356126ae848260208601612647565b91505092915050565b600080600080600080600060e0888a0312156126d6576126d5612214565b5b60006126e48a828b016122ca565b97505060206126f58a828b01612267565b965050604088013567ffffffffffffffff81111561271657612715612219565b5b6127228a828b01612689565b955050606088013567ffffffffffffffff81111561274357612742612219565b5b61274f8a828b01612689565b945050608088013567ffffffffffffffff8111156127705761276f612219565b5b61277c8a828b01612689565b93505060a088013567ffffffffffffffff81111561279d5761279c612219565b5b6127a98a828b01612689565b92505060c088013567ffffffffffffffff8111156127ca576127c9612219565b5b6127d68a828b01612689565b91505092959891949750929550565b7f4e487b7100000000000000000000000000000000000000000000000000000000600052602160045260246000fd5b60006020820190506128296000830184612382565b92915050565b7f4e487b7100000000000000000000000000000000000000000000000000000000600052602260045260246000fd5b6000600282049050600182168061287657607f821691505b6020821081141561288a5761288961282f565b5b50919050565b7f4e487b7100000000000000000000000000000000000000000000000000000000600052601160045260246000fd5b60006128ca826122a9565b91506128d5836122a9565b9250827fffffffffffffffffffffffffffffffffffffffffffffffffffffffffffffffff0382111561290a57612909612890565b5b828201905092915050565b6000612920826122a9565b915061292b836122a9565b92508282101561293e5761293d612890565b5b82820390509291505056fea26469706673582212205f932351cfef5717db47225a1fe4c01db2d7eb49902f864e50c1185886a06cd264736f6c63430008090033",
  "immutableReferences": {},
  "source": "pragma solidity >=0.7.0 <0.9.0;\n\n/// Provides basic authorization control\nimport \"../coffeebase/SupplyChain.sol\";\n\ncontract Ownable is SupplyChain {\n    address private origOwner;\n\n    // Define an Event\n    event TransferOwnership(address indexed oldOwner, address indexed newOwner);\n\n    /// Assign the contract to an owner\n    constructor () {\n        origOwner = msg.sender;\n        emit TransferOwnership(address(0), origOwner);\n    }\n\n    /// Look up the address of the owner\n    function getOwner() public view returns (address) {\n        return origOwner;\n    }\n\n    /// Define a function modifier 'onlyOwner'\n    modifier onlyOwner() {\n        require(isOwner());\n        _;\n    }\n\n    /// Check if the calling address is the owner of the contract\n    function isOwner() public view returns (bool) {\n        return msg.sender == origOwner;\n    }\n\n    /// Define a function to renounce ownerhip\n    function renounceOwnership() public onlyOwner {\n        emit TransferOwnership(origOwner, address(0));\n        origOwner = address(0);\n    }\n\n    /// Define a public function to transfer ownership\n    function transferOwnership(address newOwner) public onlyOwner {\n        _transferOwnership(newOwner);\n    }\n\n    /// Define an internal function to transfer ownership\n    // TODO: How would this change the ownership of SupplyChain.sol?\n    function _transferOwnership(address newOwner) internal {\n        require(newOwner != address(0));\n        emit TransferOwnership(origOwner, newOwner);\n        origOwner = newOwner;\n    }\n}\n",
  "sourcePath": "/Users/tanin/Developer/LearnBlockchain/part4/project-ETH-Dapp-Track-Supply-Chain/starter-template/project-6/contracts/coffeecore/Ownable.sol",
  "compiler": {
    "name": "solc",
    "version": "0.8.9+commit.e5eed63a.Emscripten.clang"
  },
  "schemaVersion": "3.4.3",
  "updatedAt": "2021-11-21T10:32:24.983Z",
  "devdoc": {
    "kind": "dev",
    "methods": {},
    "version": 1
  },
  "userdoc": {
    "kind": "user",
    "methods": {
      "constructor": {
        "notice": "Assign the contract to an owner"
      },
      "getOwner()": {
        "notice": "Look up the address of the owner"
      },
      "isOwner()": {
        "notice": "Check if the calling address is the owner of the contract"
      },
      "renounceOwnership()": {
        "notice": "Define a function to renounce ownerhip"
      },
      "transferOwnership(address)": {
        "notice": "Define a public function to transfer ownership"
      }
    },
    "version": 1
  }
}